:020000041000EA
:10000000002008205D0100101B0100101D010010E0
:100010001101001011010010110100101101001058
:100020001901001019010010190100101F01001022
:10003000110100101901001021010010230100100E
:100040001101001011010010110100101101001028
:100050001101001011010010110100101101001018
:100060001101001011010010110100101101001008
:1000700011010010110100101101001011010010F8
:1000800011010010110100101101001011010010E8
:1000900011010010110100101101001011010010D8
:1000A00011010010110100101101001011010010C8
:1000B00011010010110100101101001011010010B8
:1000C00011010010110100101101001011010010A8
:1000D0001101001011010010110100101101001098
:1000E0001101001011010010110100101101001088
:1000F0001101001011010010110100101101001078
:100100001101001011010010110100101101001067
:10011000EFF30580103800BE00BE00BE00BE00BE7A
:1001200000BE00BEF2EB88711C8F0010448F0010DF
:10013000A001001090A31AE7D3DEFFFF42012110B7
:10014000FF010000A49C0000793512AB4FF00000C5
:100150001E49086006C881F3088810474FF05040D8
:10016000006810B14FF00000F2E70DA40ECC00299A
:1001700002D000F012F8F9E71549164A002000E015
:1001800001C19142FCD11449884714498847144958
:10019000884700BEFDE701C901C29A42FBD3704700
:1001A000448F001010010020A80F0020DC9D0010DB
:1001B0000000082000000820DC9D0010001008202E
:1001C00000100820000000007047000008ED00E06B
:1001D000A80F0020E0140020AD2E001075020010C2
:1001E000A52E0010F8B500BF0348044B834202D08F
:1001F000034B03B118477047A80F0020A80F002039
:1002000000000000064B0749C91A891048BF013198
:10021000491003D0044B0BB101481847704700BF89
:10022000A80F0020A80F00200000000010B5064C09
:10023000237843B9FFF7D8FF044B13B10448AFF359
:1002400000800123237010BD281100200000000051
:100250006085001008B5044B1BB104490448AFF396
:100260000080BDE80840CDE7000000002C11002010
:100270006085001010B5002484B04FF4FA6000943B
:1002800000F000FE00F05CF841F2883000F0FAFD6A
:10029000224802F079FF224803F0DCFC4422214688
:1002A0006B46C0B203F0FAF860BB009803F066F941
:1002B00000282FDB009803AB02AA01A903F072F912
:1002C00020BB019808F014F902460B46154802F0CD
:1002D000DDFF039808F00CF902460B46124802F0C5
:1002E000D5FF4FF4FA6000F0CDFD104802F04CFF4E
:1002F0004FF4FA6000F0C6FD0D4802F045FF002003
:1003000004B010BD0B4802F03FFFCEE70A4802F0F0
:100310003BFFD6E7094802F037FFCBE760850010C6
:1003200070850010DC85001000860010208600100B
:100330003086001078850010BC850010988500106C
:1003400003F082B810B44FF480740C4B53F82020A3
:1003500003EB8003C00082F0400200F1804003F50F
:10036000805C02F0C00200F5203003F54053CCF869
:10037000002041601C605DF8044B7047048003401E
:100380000FB400B583B0049C074802F0FDFE3CB1F9
:1003900005A92046019102F055FD044802F0F4FE43
:1003A000012002F067FD00BF50860010608600103B
:1003B00070B58646EFF3108572B6124CD4E8CF6F55
:1003C0000120002EFAD1C4E8460F002EF6D1BFF36B
:1003D0005F8F4FF0010CC80801F007030CFA03F31C
:1003E0001EF800C01CEA030608D14CEA030C0EF804
:1003F00000C0C4E88F6F85F3108870BD1046FFF70A
:10040000BFFF00BF57140020044A1078431CDBB222
:10041000182B28BF10231370704700BF80090020DD
:100420004FF0E022936843F000539360704700BFA1
:100430000021044B03F12002C3E88F1F01339342D4
:10044000FAD170474C1400204FF0E0234FF0803277
:10045000C3F80024C3F80424C3F80824C3F80C2408
:10046000C3F81024C3F81424C3F81824C3F81C24B8
:10047000C3F82024C3F82424C3F82824C3F82C2468
:10048000C3F8302462B67047012300F01F02934086
:10049000400941B1800000F1604000F56140C0F8C2
:1004A000803103607047024A203042F820307047A4
:1004B00000E100E0F8B50D46EFF3108772B6124E7A
:1004C000D6E8CF2F0123002AFAD1C6E8423F002AFE
:1004D000F6D1BFF35F8F0D4B00F110049B680C4AFF
:1004E00053F82430934203D0994201D000F042FFE8
:1004F000064B9B6843F82450BFF35F8F0023C6E888
:100500008F3F87F31088F8BD5514002000ED00E000
:10051000110100102DE9F04F83B0EFF3108A72B68D
:10052000744ED6E8CF2F0123002AFAD1C6E8423F05
:10053000002AF6D1BFF35F8F6F4B00F110089B6864
:100540006E4A53F8285095423FD08D420C464AD00F
:100550006B4FEB1B2F2B38D801214FEA50194FEA74
:10056000890909F1604909F5614900F01F0301FAA1
:1005700003F0D9F80030C9F8800000EA030BBFF39C
:100580005F8FEFF30581C9B279B3884577D125F044
:10059000010EDEF808C0644505D17CE0D3F808C040
:1005A000644532D09E469EF9062002EB4203002AA3
:1005B00007EB8303F2DA644500F08180BBF1000FA2
:1005C00020D0C9F88001C9F800004B4B9B6843F864
:1005D0002850BFF35F8F0023C6E88F3F8AF310884F
:1005E00003B0BDE8F08F1546EFE725F0010EDEF809
:1005F00008C06445D7D19EF906407346002C08DA3E
:10060000154666E0C9F88000DFE793F90640002C44
:1006100056DB04EB440C07EB8C0CDCF80820610083
:100620009A609CF80720DA719CF90620002A9A71DA
:100630005DDBBCF80420520504D502F5FF1202F57B
:10064000FF521F32521502F1020C4FF0040E0C2221
:1006500012FB04E202EB4C026FF0070C3A44ACEBE5
:10066000030C6244C2F34A0242F460429A80254B72
:1006700021441A7807EB81011C708A719EE7CDE94D
:10068000000100F077FEDDE9000125F0010EDEF843
:1006900008C0644587D19EF906407346002CB8DA3D
:1006A000194A1A4CD21A083AC2F30A316FEA0151B8
:1006B0006FEA115144EA5202DA8099807EE773466C
:1006C0000029EDD1FF228EF806204BF60152AEF83C
:1006D00004200C4C4AF6AA2294F800C01946C91B03
:1006E00049414A43120D83F806C0227066E74BF673
:1006F0000152BBE75514002000ED00E0110100108D
:1007000084090020DC140020BE09002000F8FFFF4F
:10071000F0B5EFF30585EDB2EFF3108C72B6264914
:10072000D1E8CF2F0123002AFAD1C1E8423F002AA5
:10073000F6D1BFF35F8F214E40F0010EB4684AF648
:10074000AA2354F825701E4A0446A41A6441634340
:100750001B0D77455BB21BD092F906409C421CD022
:1007600092F912409C4223D092F91E409C4221D023
:1007700092F92A409C4208BF03240FD0114A00245A
:10078000157813708571C1E88F4F8CF31088F0BD18
:10079000B2680D4C42F82540F0E7002404EB440415
:1007A00002EB8402FF2494714BF601549480E5E738
:1007B0000124F3E70224F1E75514002000ED00E0E6
:1007C00084090020DC14002011010010014B0B44AF
:1007D000036070474C14002070B5104C104DAC42B3
:1007E0000ED2FF26236863B1FFF70EFE01462046B6
:1007F000FFF7ECFFA680BFF35F8F0834AC42F1D364
:1008000070BDFFF701FE01462046FFF7DFFF2671AE
:10081000BFF35F8F0834AC42E4D370BDA00F00205B
:10082000A80F00200D4B1A68EFF3108172B6D2E8C2
:10083000CFCF0120BCF1000FF9D1C2E84C0FBCF1C1
:10084000000FF4D1BFF35F8F00221B68C3E88F2F26
:1008500081F3108840BF002000217047D014002091
:100860002DE9F04F2DED028B85B0EFF30583DBB260
:10087000103B9A0818BF01224FF0010103F003005A
:1008800018BFAF4DAF4B08BFAF4D00EB820253F81E
:10089000226001FA00FB05F541539FEDA78B019003
:1008A000C3F804B02EE0B388180440F19280B37905
:1008B000002B40F0DC80B6F908100029C0F21D8141
:1008C000736901EB410103EBC103D3E90247B7F1BF
:1008D000FF3F08BFB4F1FF3F0DD0019B05EB830143
:1008E000AB6A0A69D21AE31A934203D32B6A13EA5A
:1008F0000B0F00D10C61284600F066FBA042B94105
:10090000C0F2FB80B6F90830C5F83CB0002B00936C
:10091000C9DBD6F8149003EB430A284609EBCA0753
:10092000D7E9024800F050FBA04271EB0801BADBA6
:10093000B8F1000FC0F2C380D7E90431834A934273
:1009400000F0ED807A88B6F9080092B242EA0040E1
:10095000984702460B4652EA030100F0B080002B94
:1009600080F2D180B4EB020E68EB030839F93A301B
:10097000C7E902E8002B96DB716903EB430201EB48
:10098000C202D2E90270BE4578EB000C4FEA430286
:1009900089DBB4462CF8083F0BE031F93230A4462D
:1009A000002B0DDB03EB430001EBC0005A00D0E944
:1009B0000270BE451A4478EB000001EBC204ECDA89
:1009C00029F83A30009BACF80030B38818043FF5A2
:1009D0006EAF3369EFF3108272B6D3E8CF0F012107
:1009E0000028FAD1C3E8401F0028F6D1BFF35F8F7B
:1009F0004FF6FF74B0880023316900B2B480C1E8BB
:100A00008F3F82F310889842FFF651AF0746A94600
:100A1000746906F1080807EB470E04EBCE03D3E92F
:100A20000250B6F90830C446002B13DBB2460097DB
:100A300004E034F936309446002B09DB03EB43061F
:100A400004EBC602D2E90271BD4270EB0101F0DA9B
:100A50005646009FACF8007034F93E7024F83E30E2
:100A6000002FD8DAB3794D46002B3FF424AF002392
:100A7000B371B6F9083006F10808591C3DD0194683
:100A8000776903E080465A1C3FF417AF03EB43023B
:100A900007EBC200B0F802C01C461CF4004F9E4693
:100AA00037F93230EED08C4280ED028B05D0A8F8B9
:100AB0000030318927F8321034817146E3E739F884
:100AC0003A3033813369EFF3108272B6D3E8CF0F37
:100AD00001210028FAD1C3E8401F0028F6D1BFF356
:100AE0005F8F7388316929F83A30009B7380002347
:100AF000C1E88F3F82F31088D5E640BF05B0BDEC5A
:100B0000028BBDE8F08F2846CDE9022300F05CFAA5
:100B1000029A039B10EB020E43EB010826E70846FE
:100B20000B69029198470028C9D00299D1E90023A6
:100B300011E700BFAFF30080FFFFFFFFFFFFFFFFE4
:100B400000800B40B014002000000B406108001032
:100B50002DE9F84F364C25692DB1BDE8F84F0A2133
:100B60003448FFF733BEDFF8E4800321404600F04D
:100B700019FA0326C4F80C80FFF746FC4FF0504CDE
:100B80002D4B267003442361DCF800300F21637085
:100B9000636961801D834FF00405A3F878504FF01E
:100BA0000505A3F890504FF00605A3F8A8504FF0A4
:100BB00007050E214FF6FF7208274FF00A0EA3F823
:100BC000C0504FF001094FF00C0C4FF0020B4FF0EA
:100BD000090A0D204FF00B05A3F868111749A280F0
:100BE000A3F808E1A160A3F848B0A3F8F0A0A3F827
:100BF0002051A3F838C1A3F85001A3F83090A3F80E
:100C00006060A3F8D8701A800D4B3046C8F8207089
:100C10000C49DC60FFF74EFC49463046FFF734FCD8
:100C2000094B0A211F640348BDE8F84FFFF7CEBD0A
:100C3000CC090020D01400204C140020FFFF10002D
:100C4000B01400206108001000200B4000000B4091
:100C50000146F0B50069EFF3108772B6D0E8CF5FB8
:100C60000124002DFAD1C0E8454F002DF6D1BFF385
:100C70005F8FB1F902E04C690EEB4E0CBEF1000F34
:100C80004FEACC0504EBCC0C3DDB605B00264880D2
:100C90000869C0E88F6F87F31088BCF80200CCE9C0
:100CA00002230130C0F30E00012838BF0120059B4C
:100CB000ACF80200CCF81030069B40EA0E40CCF8AD
:100CC00014300B69EFF3108272B6D3E8CFCF01274F
:100CD000BCF1000FF9D1C3E84C7FBCF1000FF4D197
:100CE000BFF35F8F8B886353A1F804E00B69C3E8FF
:100CF0008F6F82F310880122CB68097803F50153C6
:100D00008A405A60F0BD00230A69C2E88F3F87F32A
:100D100010884FF0FF30F0BD03464089B0EB214F03
:100D200037DD58690A1402EB420210B500EBC2002D
:100D30001C69EFF3108C72B6D4E8CFEF0122BEF13C
:100D4000000FF9D1C4E84E2FBEF1000FF4D1BFF36C
:100D50005F8F428889B292B28A4207D000221B6913
:100D6000C3E88F2F8CF31088002010BD42F400429E
:100D700042800121002218699971C0E88F2F8CF3FD
:100D800010881C78DA68084602F50153A1405960C2
:100D900010BD0020704700BF2DE9F041861F41F1D2
:100DA000FF35B04271EB050338BF002682B038BF73
:100DB000354604460F4600F00FF9301A65EB010383
:100DC000012873F1000306DA2046394602B0BDE877
:100DD000F04100F03DB900F0FFF8864265EB0101FB
:100DE00000290ADB0021174B3246009316482B4698
:100DF0000191FFF72DFF0028E6DB4FF0000C1348B0
:100E0000134A436A9D4204D8816AB142DCD29D42B2
:100E1000DAD11368EFF3108172B6D3E8CF8F5FF0A9
:100E2000010EB8F1000FF8D1C3E848EFB8F1000F98
:100E3000F3D1BFF35F8F1368C3E88FCF81F31088BE
:100E400020BFDEE725080010CC09002000000B4081
:100E5000D014002038B504460D4600F0BDF84FF020
:100E6000FF326FF00043201845EB0101824273EB23
:100E7000010438BF1946BDE8384038BF1046FFF7B7
:100E80008BBF00BF10B5044600F0A6F84FF47A738C
:100E90004FF0FF3C6FF00042E4FB0301BDE810405F
:100EA000844572EB01033CBF60461146FFF774BFF7
:100EB0002DE9F04306460D4683B0EFF30584E4B216
:100EC0003CB1274B586AA8421CD2002003B0BDE8B1
:100ED000F083244FD7F80C9097F80080484600F034
:100EE00073F808F1040859F828301B1A301A65EB1A
:100EF0000101984271F1000111DB20BF184B586AC3
:100F0000A842E2D39B6AB34203D3012003B0BDE8F9
:100F1000F083401B18BF012003B0BDE8F08300F050
:100F20005BF8864265EB01010029CADB0E4B3846AF
:100F3000CDE9003432462B46FFF78AFE011EC0DDA4
:100F4000074B5A6AAA4208D39B6AB34203D30548A7
:100F5000FFF7E2FEB5E7AA42F9D120BFF7E700BFED
:100F600000000B40CC09002025080010084AD0E9F9
:100F70000003516A8B4204D8926A824203D3012053
:100F8000704700207047581A18BF0120704700BFF3
:100F900000000B4001460248C1E90023704700BF32
:100FA0006D0F001010B4054B054C064AA04214BF4B
:100FB0001846581C5DF8044BFFF7FAB9741400206A
:100FC00000800B40648600100346416A0A46986A16
:100FD000596A8A42FAD17047034B596A0A46986A9D
:100FE000596A9142FAD1704700000B4010B4174A79
:100FF000536A9C46946A536A6345FAD10019594171
:101000004FF0000228BF01220346CAB10F4B596AB4
:101010004B1C08BF0B4608D04FF0FF310B460B4866
:10102000426A8A42FCD38A4207D1084A02E0506AE7
:10103000884202D1906A9842F9D35DF8044B704718
:10104000024A526A9142EAD8EDE700BF00000B4025
:10105000074A536A9942FCD8994207D1044B02E0EF
:101060005A6A914202D19A6A8242F9D3704700BF0C
:1010700000000B40F8B5054606200E4600F0E4F8E7
:10108000002842D0354A3648954214BF4FF080625E
:101090004FF00062334B344902601A608C6832EAC8
:1010A0000404FBD12D4B4FF48071EB1AB3FA83F398
:1010B0002E4A5B09062022F8131000F0C5F8C30081
:1010C000B3FBF6F30133DA0920D14026012169622E
:1010D000AA622F6BFB0722D42B46002253F82C1F49
:1010E000062003F5805422602F6300F0ADF840F233
:1010F000013103228000B0FBF6F0EB6A83F070034D
:1011000003F07E0323602963AA64F8BD4FF6FE71E5
:101110008A421BD922464FF6FF71154ED7E740F29F
:10112000013205F540531A636B6AAC6A062004EB82
:10113000831400F089F80F4BA402A3FB0023DB0A01
:101140000021B4FBF3F0FFF751FFC5E7C3F34503FC
:10115000114603EB82161A46B9E700BF008007402C
:10116000002002400030024000000240D414002061
:10117000C0FF3F00757B2B8F00EB400C4FEA8C0CBF
:101180000CF1804C0CF5803CF0B51646DCF80420E0
:10119000051FB2F5803F38BF4FF48032EDB238BF43
:1011A000CCF80420012D2AD94FF40067254C0CF50A
:1011B0004052176054F82020B2B9DCF80020012D0D
:1011C00082EA461202F0E0020CF5805632602AD91B
:1011D0004FF4006144F820304FF480330CF5005296
:1011E0001160CCF80430F0BD6769B7FBF2FE0EF178
:1011F000010E0EEB4E0EBEF1030EFCD2DDE701290F
:10120000D2D103240CF540521460DCF80820D20738
:10121000FBD5DCF800200B4C82EA461202F0E0021B
:101220000CF5805632600122DCF800504D4005F08C
:101230000305356002FA01F1DCF808200A42FBD010
:10124000C6E700BF78140020014B53F82000704718
:101250007814002070B4039D04682D0345EA03450B
:101260001B4B002CB3FBF1F3B2FBF3F61FDB194A67
:10127000194B904214BF4FF480424FF40042174C78
:101280001A6003F580531A60A36832EA0303FBD1A6
:10129000212200F540530433016086601A60026821
:1012A000002AFCDA0822C5601A6070BC7047036827
:1012B00003F03F038B42DAD18368C3F30B03B342DD
:1012C000D5D1C36803F4EE23AB42D0D1EDE700BF24
:1012D000001BB700008005400020024000000240D3
:1012E000012300EB4000800000F1804000F58410F5
:1012F00041600360704700BF0023DB8A002242E8A0
:1013000000F2520201D4102118470421184700BFEF
:10131000034AD2F82838002BFBD0BFF35F8F704709
:1013200000000E400021044B044ABFF35F8F43F8D6
:10133000041B9342F9D170470C080E402C080E4054
:1013400010B44FF48D704FF42A64064A064B0749D7
:101350001460D06019605368002BFCDA5DF8044B10
:10136000704700BF0080044000A0044000B0FA00B5
:10137000704700BF08B50148FFF702F888860010E3
:1013800038B5054C054DAC4204D254F8043B98479F
:10139000AC42FAD338BD00BF188500105885001044
:1013A00010B40748074C084B084A094904601A6002
:1013B0008B6832EA0303FBD15DF8044B704700BF32
:1013C000002002407F3BEFEF00300240F6FFF303C6
:1013D00000000240044BDB6CB3F5004F03D14FF427
:1013E0008022024BDA647047000011500020115037
:1013F0004FF0E022044BD2F8881D0B43C2F8883D21
:1014000010EE3004704700BF030330006FF06041FE
:10141000044B054A19609368DB4333F06043FAD10B
:10142000704700BF003002400000024010B545F296
:101430005320FFF761FFBDE8104003460420184722
:1014400010B545F25320FFF757FFBDE810400346A3
:1014500001201847FEF7ECBF70B51449144C154D28
:10146000641AA610442E324628BF44222846920011
:1014700006F01EFFB4F5867F13D80F4AC6F144016B
:1014800012D02B19480803EBC000C3E9002208332F
:101490008342FAD1CB0704D521F00103334445F848
:1014A0002320064B9D6070BD4323F8E70000001029
:1014B00010010010000000201101001000ED00E0FC
:1014C000002370B52B4C82B0C4F88430FFF738FF8E
:1014D0000122294BDA63636C012BFCD10321264ADC
:1014E000244B11639C6B012CFCD10226052521465F
:1014F0000523224A22480096FFF7ACFE21462B46E0
:10150000204A21480095FFF7A5FE0022042031461D
:101510001E4BFFF731FE2146284600221C4BFFF7E9
:101520002BFE0022082011461A4BFFF725FE002251
:1015300009201146174BFFF71FFE00220620114617
:10154000134BFFF719FE0022114B07201146FFF73E
:1015500013FE0420FFF778FE00240F4BA3FB003599
:10156000AD0CE0B229460134FFF7BAFE062CF8D1E3
:1015700002B070BD0000014000300140002F6859EA
:1015800000000540008C864700800540001BB70026
:1015900080D1F008006CDC0283DE1B4386B003B40C
:1015A00051FC0804CDE9020151FC0904CDE9040114
:1015B00051EC0A04CDE9060103BCF047BDE8005038
:1015C0004EEC00C4BDE800504EEC01C4BDE8005034
:1015D0004EEC02C400BD000000B5FFF7DFFF02E0E3
:1015E00010FE30F4F8D441EC100443EC112400EE6A
:1015F000010410EE010480EE200451EC1004704749
:1016000000B5FFF7CBFF02E010FE30F4F8D441EC58
:10161000100443EC112400EE010410EE210480EECE
:10162000200451EC3004704700B5FFF7B7FF02E02B
:1016300010FE30F4F8D410B541EC100443EC112442
:1016400051EC040453EC0524A0FB024C5FF0000EA7
:10165000E0FB03CEE1FB02CE4CEC20440024E1FB96
:1016600003E444EC30E480EE200451EC5004BDE887
:101670001040704700B5FFF791FF02E010FE30F414
:10168000F8D441EC100443EC112451EC2104A0FBEC
:1016900001126FEA820252FB100052FB12F252FB5F
:1016A0001000A0EBD07C53EC04245CFB13F153EC52
:1016B0001524A1FB022001FB030053EC4424A2EB00
:1016C000000050FB1CF24FEA111312EB017043EBC8
:1016D000E27140EA515020EA915020F0070053ECAB
:1016E0007524A0FB023C53EC752400FB03CC01FBEA
:1016F00002CC53EC0424ACEB824C40EA5C70A0F1C9
:10170000010041EC400480EE200451EC700470476D
:1017100000B5FFF743FF02E010FE30F4F8D441ECCF
:10172000100480EE220410EEB204704700B5FFF7FB
:1017300035FF02E010FE30F4F8D440EC700400EE07
:10174000010410EE210480EE200451EC30047047B7
:1017500000B5FFF723FF02E010FE30F4F8D440ECB0
:10176000600400EE010410EE210480EE200451EC30
:101770003004704700B5FFF711FF02E010FE30F4AF
:10178000F8D441EC800400EE010410EE010480EE78
:10179000400410EE1304704700B5FFF7FFFE02E0AF
:1017A00010FE30F4F8D441EC800400EE010410EE99
:1017B000010480EE400410EE3304704700B5FFF7DB
:1017C000EDFE02E010FE30F4F8D441EC100443ECDE
:1017D000112400EE010410EE3004C0F300707047D5
:1017E00000B5FFF7DBFE02E010FE30F4F8D443EC66
:1017F000102441EC110400EE010410EE30F48CBF13
:1018000001200020704700BF00B5FFF7C7FE02E0CF
:1018100010FE30F4F8D441EC100443EC112400EE37
:10182000010410EE30F42CBF01200020704700BFEF
:1018300000B5FFF7B3FE02E010FE30F4F8D441EC3F
:10184000100443EC112400EE010410EE30F48CBFC0
:1018500001200020704700BF38B504460D4606F051
:10186000D5F805FB04F428B10346044A2344934207
:1018700000D838BD0248FEF783FD00BF00000820F5
:101880009486001006F00CBD704700BF2DE9F04FA4
:1018900083B09946DDE90DAB0F9B884611469A0748
:1018A000074616D1DA453AD20C460D46ABEB0A068E
:1018B0000E4422464B46414620200134B847B442EC
:1018C000F7D12946BAF1000F08D1204603B0BDE890
:1018D000F08F0C46BAF1000F10D00E4655460C9B07
:1018E0002E449A440191721B4B46013D41461AF821
:1018F000010D3446B847002DF5D101990F9B9B0788
:10190000E3D5651AAB45E0D922464B464146202037
:101910000135B8475D4504F10104F5D3D5E7BAF1C7
:10192000000FDAD10C46D0E72DE9F04F0F9FDDF81C
:1019300024E017F0020F0A9C9DF82C900E9DDDE923
:101940000C8629D1002D6FD1B44225D2202C07F06E
:10195000010B00F0128104F1FF3C4FF0300AF44417
:1019600001E0202C7AD00134A6420CF801AFF8D85F
:10197000BBF1000F10D0AC420ED2202C74D004F179
:10198000FF3C4FF0300AF44401E0202C29D0013410
:10199000AC420CF801AFF8D117F0100F3AD017F4A1
:1019A000806F28D11CBBB8F1100F00F0CA80B8F1CD
:1019B000020F00F0D48030248EF800400124B9F1E9
:1019C000000F67D17E0740F1AA802B260EF8046035
:1019D0000134CDE90B57CDE909E4BDE8F04FFFF73D
:1019E00055BFFC0640F189807C0535D42024A642F1
:1019F0006AD0AC4268D0B8F1100F00F08780B8F11F
:101A0000020F5AD0202CE4D0264601344FF0300C7F
:101A10000EF806C0202CD2D1CDE90B57CDE909E450
:101A2000BDE8F04FFFF732BF17F0010B3ED0B9F120
:101A3000000F47D117F00C0F44D1B4429BD2202C99
:101A400089D1202D10D8FC0657D57C0555D4202EE1
:101A500000F0B980202D10D02024CCE7BBF1000F7E
:101A600000F0A580202DBCD9FC0646D57C0544D4C9
:101A7000202E00F0A880202D3FD12C461F26B8F143
:101A8000100F7FD0B8F1020FC0D14FF0620C0EF8EA
:101A900006C0B7E72D260EF804600134CDE90B57D8
:101AA000CDE909E4BDE8F04FFFF7F0BEB442BFF462
:101AB00073AF202C7FF44FAFD6E7202C89D0264679
:101AC0000134E2E7013DB8E7661ED8D1B8F1100F46
:101AD00064D0B8F1020F7FF46EAF62268EF800601A
:101AE000302644468EF80160B9F1000F3FF46AAF2A
:101AF000D0E7B8F1100F7FF46CAF2024CDE90B577D
:101B0000CDE909E4BDE8F04FFFF7C0BEBE060ED434
:101B1000202CF2D078260EF80460013472E73E07DC
:101B20007FF557AF20260EF80460013451E7202CD2
:101B3000E3D04FF0580C0EEB040686F800C00134D9
:101B400060E7BE0617D558248EF8004030248EF882
:101B500001400224B9F1000F3FF434AF9AE7622448
:101B60008EF8004030248EF801400224B9F1000FB5
:101B70003FF428AF8EE77824F2E7BBF1000F7FF443
:101B800062AF71E717F0200F0CBF4FF0780C4FF0E9
:101B9000580CA61E0EF806C0013C35E7BC06EAD577
:101BA00058248EF8004030248EF80140DDE717F00D
:101BB000100F3FF40EAF17F4806F9AD1202E7FF4F0
:101BC00018AF1F265BE734461F2658E700B9704759
:101BD00001F098BA10B1D1E900311847704700BF41
:101BE0002DE9F04F9FB09DED287BDDE92AA558EC4B
:101BF000177B83461E460D91109243463A4638465F
:101C000041468DED087B2C9CFFF7DCFD002840F061
:101C1000D880384641464FF0FF32754BFFF70CFE37
:101C2000002840F0CE80384641464FF0FF326FF436
:101C30008013FFF7D9FD002840F0C380DDE9087864
:101C40000022384641460023FFF7CEFD002840F031
:101C5000C081CDE90A78DDE90A2390461F4614F4D5
:101C6000806308BF4FF0060A139304F4006258EA39
:101C70000703119240F0C080002A00F0A2819FED7E
:101C80005A7B00278DED0E7B4FF00009BA45CCBF83
:101C9000AAEB070A4FF0000A4F46C8BF0AF1FF3A05
:101CA00044F480644D4594BF4FF00008A5EB09084B
:101CB00014F00203119304D0B9F1000F18BF4FF0D4
:101CC00000083FB1DDE90A01DDE90E23FFF7D6FC8C
:101CD000CDE90A01DDE9080100220023FFF784FDB8
:101CE00030B1DDE90A01024601F10043CDE90A23E2
:101CF0009DED0A7BCDE902A8DDF834A024F4006351
:101D000004938DED007B334651465846109A00F0FF
:101D100097F98046B9F1000F4FD014F0200F02461A
:101D200000F1010433460CBF652045205146D847D9
:101D300009F1FF3087EAE77C0DF1580900224B4694
:101D4000DFF8B080ACEBE77C4FEAD77E01E0202AD9
:101D500010D0E246A8FB0C71C90801EB8107ACEB7F
:101D600047073037BAF1090F8C4602F1010203F838
:101D7000017BECD805230590069300200A230D9FD4
:101D8000CDE90330CDE9012E334622463946584687
:101D9000CDF80090FFF7C8FD119B80466BB1109BFA
:101DA000C41AA54209D94246334639462020013497
:101DB000D847A54208F10108F5D840461FB0BDE854
:101DC000F08F9DED087B33465846109A0D998DEDA6
:101DD000287BCDE92B54CDF8A8A01FB0BDE8F04F6B
:101DE00000F02EB9AFF300800000000000000000FA
:101DF000FFFFEF7FCDCCCCCCC7F30A50A0F2FF3071
:101E0000FFF798FC8AA3D3E90023FFF711FC8AA30C
:101E1000D3E90023FFF7E4FBC7F31307CDE90E0175
:101E200047F07F51404600227B4B41F44011FFF7C1
:101E3000EBFB6BA3D3E90023FFF7FAFB02460B464B
:101E4000DDE90E01FFF7CCFBFFF798FC0746FFF733
:101E500071FC65A3D3E9002380468946FFF7E8FBC0
:101E600000226E4BFFF7BCFBFFF788FC0346494698
:101E7000404612935EA3D3E90023FFF7D9FB8046C7
:101E800012988946FFF756FC5BA3D3E90023FFF7BE
:101E9000CFFB02460B4640464946FFF7B5FB0246DC
:101EA0000B4680468946FFF7C3FB42464B46CDE9C9
:101EB0000E0140464946FFF793FB0022CDE914018D
:101EC000DDE90E01564BFFF7D9FB0022554BFFF71A
:101ED00087FB02460B46DDE90E01FFF7CFFB002230
:101EE000514BFFF77DFB02460B46DDE90E01FFF784
:101EF000C5FB42464B468046894600204FF0804154
:101F0000FFF782FB02460B4640464946FFF768FB57
:101F100002460B46DDE91401FFF7B0FB0022434BFC
:101F2000FFF75EFB129B002203F2FF3C4FEA0C53CB
:101F3000FFF77EFB80468946DDE90A0142464B46B3
:101F4000CDE90E89FFF750FC68BB4346494607F1CF
:101F50006302C62A119A8CBF4FF005094FF004099D
:101F6000002A3FF49FAE0B433FF48EAEDDE90A0139
:101F700023A3D3E90023FFF74BFC48B1DDE90A01B5
:101F800021A3D3E90023FFF72FFC00287FF47CAEC8
:101F9000BAF1000F3FF486AE139B002B3FF482AEE4
:101FA0000AF1FF3A7EE600221E4B40464946FFF703
:101FB00065FB0A4601460346CDE90E12013F114674
:101FC000C5E79FED137B17464FF004098DED0E7B9F
:101FD00068E608F100430A970B933CE6AFF30080F4
:101FE00061436F63A787D23F71A379094F930A407A
:101FF0001655B5BBB16B0240EF39FAFE422EE63FF3
:102000002D431CEBE2361A3F0000000080842E4175
:1020100000000000000000000000F83F0000E03F6A
:1020200000002C4000002440000018400000F03F59
:10203000FB799F501344D33FB3C8608B288AC63FB7
:102040002DE9F04F97B0DDE92089CDE90401DDE904
:10205000224BCDE90623404642464B464946DDF831
:1020600090A0FFF7AFFB002840F0C58140464946ED
:102070004FF0FF326FF48013FFF7B6FB002840F0FB
:102080001D81404649464FF0FF32C14BFFF7D4FB5C
:10209000002840F0E380B8A3D3E900234046494636
:1020A000FFF7CAFB002840F0CB80B5A3D3E900239B
:1020B00040464946FFF798FB002840F0C180404663
:1020C000494600220023FFF78FFB002840F0E08004
:1020D0001AF480650D9000F0E980092C40F2968199
:1020E0000EAB1A460C9330210023A4F109050133ED
:1020F000202B02F8011BA4EB030600F03A81AB424F
:10210000F5D19FED9D7B8DED087B49464046FFF75D
:1021100035FB0446FFF70EFB02460B464046494698
:10212000FFF772FADDE90823FFF782FA02460B4651
:10213000CDE90A23FFF734FB0746FFF70DFB024604
:102140000B46DDE90A01FFF75FFA02460B46CDE9CF
:102150000A2300228F4BFFF76FFB002800F0DB8083
:1021600001373846FFF7F8FADDE90823FFF750FB9F
:1021700008B100270134002E40F0B1802046FFF75F
:10218000D9FA02460B4640464946FFF73DFA00227F
:10219000804B06460F46FFF727FB40B930463946CD
:1021A00000227C4BFFF748FB002800F015810C9BB8
:1021B000691E7948194410E080FB0462C3EBA20356
:1021C00003EB8302A4EB420404F1300201351C4608
:1021D00001F8012F002B00F0AB80202D4FEAE473B3
:1021E000EAD10AF00303012B1CD1BBF1000F19D077
:1021F0000D9B002B40F0F9801AF00C0F40F0F58099
:10220000AB4540F2D380202D0BD030220C996B1EB1
:102210000B4401355D4503F8012F00F08D80202D22
:10222000F7D12025DDE90623DDE904010C9CCDE989
:1022300002BA01950094FFF729FB17B0BDE8F08FB3
:10224000CDE92089DDE90623DDE90401CDE923BAE2
:10225000229417B0BDE8F04FFFF7C2BC4F4DCDF848
:102260008CA00AF0040ABAF1000F4D4C18BF2C469E
:10227000DDE90623DDE9040120940CBF03240424D6
:10228000CDF888B0219417B0BDE8F04FFFF7FEBA43
:102290004B46424600200021FFF7B6F901231AF40D
:1022A0008065804689460D937FF417AF9FED367B9E
:1022B0000EAB06268DED087B0C9326E70424DDE9A2
:1022C0000623DDE90401374DCDF88CA0CDF888B0A8
:1022D0002095219417B0BDE8F04FFFF7D7BA0C9BBB
:1022E000681EDFF8C4C018440DE0ACFB0721C90824
:1022F00001EB8102A7EB42023032092F00F8012FD7
:1023000027D90F461D46202D05F1010306F1FF36A2
:10231000EBD120254BE70022DDE90A011D4BFFF739
:1023200063FA00287FF427AF002F5AD1013722E744
:102330000AF00303012B75D0202D3FF473AF0D9BE2
:10234000BBB32D2205F158036B4403F8202C013553
:1023500068E7202BDDD0AEB30C9A1E441544302222
:1023600001E0B3422ED00133202B05F8012FF8D124
:10237000CFE71D46C5E600BF0000000065CDCD419A
:102380000000000065CDCDC10000000080842E411A
:10239000FFFFEF7F0000E03F67666666E48600109F
:1023A000EC860010F4860010CDCCCCCC202D3FF470
:1023B00039AF1AF0040F0DD11AF0080F3FF432AF05
:1023C0002022BFE72E2103F158026A4402F8201CA4
:1023D0005D1CECE62B22B5E7E3077FF5E8AE0134A0
:1023E000E5E6FA077FF5C7AEA0E70BF1FF3BAB458B
:1023F0003FF609AFA0E70324DDE90623DDE9040188
:102400000A4DCDF88CA0CDF888B061E7084B264680
:1024100003EBC40393ED007B0EAB8DED087B002531
:102420000C9372E6BBF1000F86D0E1E6F086001057
:10243000008900102DE9F04F9A469BB0249C964DE0
:102440000B94964C0B1E18BF834625609AF800002B
:10245000934C0A9308BFA3460992002800F0BC825F
:102460004FF000090AE04A46099B0A9909F101095F
:10247000D8479AF80000002800F0CE8025280AF1FD
:10248000010AF0D10023524612F8010BA0F12001FD
:1024900010290AD8DFE801F04009093C09090909B7
:1024A00009090938093409093000A0F13001092966
:1024B00040F28C802A2800F0F58000210C912E2813
:1024C00000F099800027A0F1680112292DD8DFE8DB
:1024D00011F057012C0051012C0045012C002C005B
:1024E0002C002C002C002C002C0027002C002C0091
:1024F0002C002C002C002700924643F00103C2E779
:10250000924643F00203BEE7924643F00403BAE763
:10251000924643F01003B6E7924643F00803B2E751
:102520009AF8010043F4807301326728924600F262
:102530008280242840F2C680A0F12502422A00F2BF
:10254000C180DFE812F05F01BF00BF00BF00BF0025
:10255000BF00BF00BF00BF00BF00BF00BF00BF0083
:10256000BF00BF00BF00BF00BF00BF00BF00BF0073
:10257000BF00BF00BF00BF00BF00BF00BF00BF0063
:10258000BF00BF00BF00260145012601BF00BF00FC
:10259000BF00BF00BF00BF00BF00BF00BF00BF0043
:1025A000BF00BF00BF00BF00BF00BF00D301BF001E
:1025B000BF00BF00BF00BF00BF00BF00BF00BF0023
:1025C000D3016701D301260145012601002100E066
:1025D000013201EB810100EB410110789246A0F13C
:1025E0003004092CA1F13001F2D92E280C9102F10E
:1025F00001027FF467AF9AF801001146A0F130069E
:10260000092E43F4806340F231812A2800F03E8194
:1026100092460027013256E74C46099B994501D363
:1026200003F1FF394A460020099B0A99D847204602
:102630001BB0BDE8F08FA0F16902D2B20F2A41D8D9
:10264000012649F2410196400E4040F001810A2ADC
:102650003FD0072A36D10B9C54F8042B002A00F0F7
:10266000288143F021010DF1480E704603E0202E31
:1026700000F029811A4602F00F052B46092D94BF60
:10268000303337330F2A00F8013B06F101064FEAD9
:102690001213ECD817E100BF35240010AC14002051
:1026A000891800100B9C9AF8010054F8045B9246BC
:1026B000002DBDBF694243F002030C910C950B94B1
:1026C0000132FCE64A46099B0A9909F10109D847FB
:1026D000CFE60B9951F8048B98F800201046002F94
:1026E00040F0E18072B16FF0010C0CF1010C464634
:1026F000C44401E0664503D016F8014F002CF9D11F
:10270000A6EB080613F4806C02D0BE4228BF3E46FA
:1027100013F0020400F08781002A00F02B81BCF145
:10272000000F00F041810B940D964A46DDE90954F3
:102730000E464F4408E02B462146D84718F8010FB3
:1027400009F1010910B14A464F45F4D131460B9CBD
:102750000D9E002C40F00E810B918AE69AF8010044
:102760006C287FF4DFAE9AF8020043F440730AF15C
:102770000302DAE69AF8010043F400730132D4E66A
:102780009AF80100682800F0208143F080030132AC
:10279000CBE6672800F0E780472800F00081452855
:1027A00000F0FF800B9C04930C9B0734CDE902736F
:1027B00024F007031C46DDE90931F4E802674A46C4
:1027C0005846CDE900670B94FFF70AFA814650E6B8
:1027D00046280B9C08BF43F0200304930C9B07344E
:1027E000CDE9027324F007031C46DDE90931F4E862
:1027F00002674A465846CDE900670B94FFF720FC74
:10280000814636E64A462520099B0A9909F10109C5
:10281000D8472EE60B9A9C0702F1040709F101063E
:1028200040F1E6801078099B4A460A99D8470C9BEC
:10283000012B40F22C81DDE90954994432462B46A4
:10284000214620200136D8474E45F7D10B9710E698
:102850006F2800F08B8040F26581782800F00881B5
:102860004FF00A0823F01003C44647E0002707EBA7
:10287000870700EB4700A0F1300711F8010FA0F126
:102880003002092AF3D98A464A1C1CE60B9C9AF8A6
:10289000020054F8047B0AF1020A0AF101020B94C7
:1028A00027EAE7770FE6002A3FF42CAF07F1FF3C59
:1028B0001BE723F0100113F4806241F021013FF483
:1028C000D2AE0DF1480E08231020059300234A468E
:1028D000CDE9023006915846DDE90931CDE900E63F
:1028E0000497FFF721F80B948146C2E5582879D068
:1028F000622840F051824FF00208C44613F4806011
:102900006DD123F00C0313F4007240F0C2800B99D8
:1029100004310D9113F4807140F02E825E060B9A03
:1029200040F1AA801278002A40F0DA8023F01003E8
:10293000002800F0D58011460DF1480E06930C9B3F
:10294000CDF80CC0CDE90473019100234A460293EF
:102950005846DDE90931CDF800E0FEF7E5FF0D9BB3
:1029600081460B9385E543F400631BE74FF00808AD
:10297000C446C3E70C9B4C46B3427FF6EDAE0F4610
:102980004B44A3EB0609DDE9096522463346294697
:1029900020200134D8474C45F7D13946DCE643F4D2
:1029A000006343F02003FDE60F460B94DDE9095474
:1029B0004A462B462146D84718F8010F09F101096C
:1029C0000028F5D139460B9CC3E69AF8020043F083
:1029D000C0030AF10302A8E5044681461DE623F080
:1029E0000D0390E74FF0100843F02003C44685E73D
:1029F0000C9B012B45D9DDE909544E4609F1FF38FE
:102A0000984432462B46214620200136D847464579
:102A1000F7D10C9B324699440B9B1878DDE90931BC
:102A2000D8470B9725E50C9BB34240F2EE81CDE9E8
:102A30000D48DDE9095488464B449E1BCDF82CC057
:102A40004A462B462146202009F10109D847B145C5
:102A5000F6D14146DDF838800C9BDDF82CC00D9C8A
:102A600098F800205E1C1046002A7FF458AE73E6EA
:102A70004FF01008C44641E71D064CBF128812688B
:102A800051E713464A461878DDE90931D847B1467F
:102A9000DCE60B9C073424F007042246656852F8F4
:102AA000084B0B9254EA050240F02C8123F01003EE
:102AB000002800F0278100260DF1480E06930C9B9C
:102AC0004A46CDE904730023CDE900E6CDF80CC0F9
:102AD00002935846DDE90931FEF726FF8146C8E436
:102AE00013F0200F14BF412061200DF1480E7646EF
:102AF000A0F10A0803E020293FF420AF2246B2FBF0
:102B0000FCF40CFB1425E8B2092D00F130058ABF56
:102B10004044E8B2C0B2624506F8010B01F1010180
:102B2000E9D20BE723F0100269280D9240F06F8183
:102B300013F4806204D04FF4806223F011030D93EC
:102B40000D9B13F4007640D10B9B03F104080D9B01
:102B500013F4807040F09880590640F1C6800B9BBA
:102B600019780C46CB0F002900F0B98022460DF1F0
:102B7000480E74461646DFF8A0C201E020280FD0A8
:102B80003546ACFB0621C90801EB8102A6EB4202E7
:102B90003032092D0E4600F1010004F8012BEDD86A
:102BA0000D9ACDE9010306920C9ACDE904720A232D
:102BB0004A4603935846DDE90931CDF800E0FEF7B7
:102BC000B3FECDF82C80814653E40B9C073424F0EF
:102BD000070421460846636850F8081BDC0F0B9079
:102BE00051EA030000F0C3800A46191E48DB134671
:102BF0000DF1480EF4460026CDE90E94DFF8188258
:102C000001E0202E2DD05A1842F10002A8FB0259F3
:102C100029F0030505EB9905521B1C469B1A61F12F
:102C2000000508464FF0CC3101FB03F108FB05110C
:102C3000A3FB08531944052305F00109A9FB033937
:102C40009B180A2C03F130034FEA550570F1000080
:102C50000CF8013B06F1010645EAC1734FEA510148
:102C6000CFD2DDE90E940D9B4A4606930C9BCDE92D
:102C70000164CDE904730A23CDF800E0039328E74B
:102C8000524261EB4101B2E70B9B1968CB0F00295F
:102C900000F0AB8081EAE172A2EBE1720DF1480E27
:102CA0007046DFF874C101E0202E10D01546ACFB51
:102CB0000241C90801EB8104A2EB440404F1300293
:102CC000092D00F8012B06F101060A46ECD80D9AF1
:102CD000CDE9016306920C9ACDE9047267E7002AF8
:102CE0003FF445AF0DF1480E5AE713F0800F0B9BF0
:102CF00000F08180B3F9001081EAE174A4EBE17483
:102D0000A4B22FE713F0200F14BF412261220DF16E
:102D1000480E0A3ACDE90D97CDF844B00026774623
:102D2000F3469146CDE90F3C03E0202E17D0044630
:102D30000D46294642460023204605F0DDFBD2B26F
:102D4000092A02F1300388BF02EB09034445DBB2D4
:102D500075F1000507F8013B06F10106E5D2DE46F4
:102D6000DDE90D97DDE90F3CDDF844B0A6E6002A69
:102D700047D1134611463BE70B990968A1B923F0E7
:102D8000100388B10DF1480E06930C9BCDF80CC0D2
:102D9000CDE904730192D8E513F480627FF4CBAEE1
:102DA00023F010030D93CBE613F0200F14BF412046
:102DB00061200DF1480E7646A0F10A0802E0202AB3
:102DC000E2D02146B1FBFCF40CFB1415E8B2092D4E
:102DD00000F130058ABF4044E8B2C0B2614506F850
:102DE000010B02F10102EAD2CEE7002A3FF456AF0E
:102DF0000DF1480E6BE7196881EAE174A4EBE17408
:102E0000B0E600260DF1480E2DE701362BE64FF017
:102E10000A081346C44671E5CDCCCCCC70B59446B7
:102E20001E4605460C4684B04FF0FF32634602A9A9
:102E300000960348CDE90254FFF7FCFA04B070BDD8
:102E4000D51B001010B5094B84B01C684CB103466B
:102E500000914FF0FF3203A90548A047012004B0BC
:102E600010BD00F091F9204604B010BDAC14002054
:102E7000CD1B001000BEFDE7074A0346106838B1BD
:102E8000064903448B428CBF4FF0FF3013607047FC
:102E9000034908461160F3E7A81400200000082049
:102EA000E014002008B5FFF7E5FF00BF38B5064C79
:102EB000064DFEF765FAAC4204D254F8043B98473D
:102EC000AC42FAD338BD00BF5885001060850010B1
:102ED0000368084611461847437D2DE9F0478146AF
:102EE0000F461646002B43D0002A3BDD037D002011
:102EF0004D1E014615F8012FDFF884800A2A01F1E2
:102F000001040ED0A6421CD02B782146A3F10D035C
:102F1000B3FA83F315F8012F5B090A2A01F10104C2
:102F2000F0D1002BEED18142A1EB000138441BDC33
:102F300002214046D9F800309847A64208D02046E2
:102F4000E2E7864204DD311AD9F800303844984768
:102F5000374417F8013CA3F10D03B3FA83F35B097F
:102F600089F81430BDE8F087D9F800309847DFE7DA
:102F70003846D9F800301146BDE8F047184700BF81
:102F8000508900100B682DE9F041802B0D46064654
:102F900005D05A1C2B442A601E71BDE8F0810F4BEE
:102FA0001C68A4B10E4F01F1040801E0246974B15A
:102FB0002368002BFAD03B680BB1A342F6D1204620
:102FC00041462A68FFF788FF2469002CF0D10023CE
:102FD00001222B442A601E71BDE8F081A01400205C
:102FE000A41400202DE9F04782B00D469246994680
:102FF0000746FDF7F1FF4FF0FF366FF000442F4A10
:10300000821841F10003964274EB03013CBF324643
:1030100023462B4805F07CFA6B1C804603D13846CA
:1030200005F0D4F90546274B274E1C68274BB9F10C
:10303000000F18BF1E46B4B1BAF1000F1AD1DFF865
:10304000909001E0246974B12368002BFAD0D9F87C
:1030500000300BB19C42F5D120462A463946B04794
:103060002469002CF0D1B8F1000F1FD1284602B01E
:10307000BDE8F0874FF00A0ADFF8549002E02469B7
:10308000002CF0D02368002BF9D0D9F800300BB118
:10309000A342F4D12A4639462046B04701222046B1
:1030A0000DF107018DF807A0B047E8E7044805F0E7
:1030B00027FA284602B0BDE8F08700BF40420F0063
:1030C000A00F0020A0140020D12E0010D92E001037
:1030D000A41400200A4A13684BB1834202D109E0CC
:1030E000984207D003F110021B69002BF8D101B1FF
:1030F000106070470029FCD10369136001617047BB
:10310000A0140020F0B583B006468DF80700FDF747
:1031100063FF4FF0FF356FF00044174A821841F10A
:103120000003954274EB03013CBF23462A46134833
:1031300005F0EEF9124B07461C689CB1114D01E0F9
:1031400024697CB12368002BFAD02B680BB19C4218
:10315000F6D1204601220DF10701FFF7BDFE2469DB
:10316000002CEFD117B9304603B0F0BD034805F08D
:10317000C7F9304603B0F0BD40420F00A00F002059
:10318000A0140020A414002038B5044605F01EF950
:10319000012305461A4620462946FFF723FF084B20
:1031A0001C682CB163682BB198472469002CF9D1B5
:1031B000284638BD2469002CF4D1284638BD00BF0C
:1031C000A01400202DE9F041A2B004460D46FDF701
:1031D00003FF4FF0FF376FF00046274A821841F196
:1031E0000003974276EB03013CBF3A46334623483F
:1031F00005F08EF900262B4607462246204801A9F5
:103200000196FFF70BFE019B06467BB91D4B1C6820
:103210002CB1636843B198472469002CF9D10FBBE6
:10322000304622B0BDE8F0812469F1E7DFF8548030
:10323000D8F80050EDB1144C01E02D6975B12B6840
:10324000002BFAD023680BB1AB42F6D12846019A85
:1032500002A9FFF741FE2D69002DF0D1D8F80040FA
:103260000195D5E7054805F04BF9304622B0BDE899
:10327000F0810195D3E700BF40420F00A00F00206E
:10328000852F0010A0140020A41400200FB400B556
:1032900083B004A951F8040B0191FFF793FF03B029
:1032A0005DF804EB04B07047B1F1000C1DDD0F4A6E
:1032B0000F4B126830B5D31AB3FA83F30D240D4DBA
:1032C0005B09411E35F913E08C4411F8010F864566
:1032D00006D093699B06FCD461451060F5D130BDE2
:1032E00093699D06FCD41460F3E77047D81400205E
:1032F00000800740D4140020224BB1F1000C10B420
:103300001C682EDD034600201F4A591E126893696F
:10331000DB0617D401309369DB06FCD413688445BF
:1033200001F8013FF3D14CB150211346916353F89A
:10333000342F02F0380203F580531A6060465DF8BE
:10334000044B70474CB150211346916353F8342F0E
:1033500002F0380203F580531A6078B15DF8044B2F
:1033600070475CB1084B50211A681346916353F8BB
:10337000342F02F0380203F580531A606FF0020018
:10338000ECE700BF6C140020D8140020054B1B682C
:1033900033B10021044A0548126800689163184758
:1033A000704700BF6C140020D81400207014002057
:1033B000024B1A6893691B07FCD47047D81400208D
:1033C000F8B51C4F1C4D3A681C4EAA4214BF21256B
:1033D00022250446D6F800C018B1BCF1000F10D069
:1033E000F8BDBCF1000FFBD0014690632846FDF705
:1033F0004BF828461249FDF78DF8124B34601C60DB
:10340000F8BD0B460F4A0E49306028461360FDF7A1
:1034100051F801212846FDF737F83A685021134644
:10342000916353F8342F02F0380203F580531A6089
:10343000F8BD00BFD8140020008007406C140020A5
:103440008D3300107014002010B50E490E4C0F483B
:103450000F4A104B007821600020022112781B785F
:10346000FCF770FF02210120FCF76CFF4FF4E13103
:103470002068FDF7FFFDBDE8104001210648FFF779
:1034800029BE00BF00000740D8140020408F001064
:103490003C8F0010388F0010E40900204FF0000C22
:1034A0002DE9F0471546421E86B01A2AADF816C01F
:1034B00026D81E4623B315F0780321D0782B1FD0D1
:1034C000DFF8B4A0C0EBC0030AEB83031B7D044606
:1034D0000F464FEAC008C3B1A8EB04080AEB8808FE
:1034E000D8F80430294638460DF1160298470346AD
:1034F0003060002837D000201C8006B0BDE8F0877F
:103500004FF0FF3006B0BDE8F08742F21079184B5B
:103510001B68B9FBF3F942F60A0303FB09F9154BE3
:10352000A3FB0939FDF758FD4FF0FF326FF0004360
:103530004FEAD90919EB000041F10001824273EB17
:10354000010C3CBF104619460023CDE9020100934F
:1035500029460123384605AA04F0BEF90028BBDA43
:103560006FF00100CEE7BDF916006438CAE700BF6E
:10357000FC090020CDCCCCCC7089001068B1038848
:103580005A1E1A2A06D8064AC3EBC30302EB83036A
:103590009B6818476FF0010070474FF0FF3070478D
:1035A00070890010B0B1B0F800C010B40CF1FF3455
:1035B0001A2C0AD8094CCCEBCC0C04EB8C0CDCF8A4
:1035C0000C40A4465DF8044B60476FF001005DF8C5
:1035D000044B70474FF0FF30704700BF70890010F8
:1035E0004FF0FF33CA1820FA02F2C1F12001CB409C
:1035F000D2074CBF60EA0300184070472DE9F0473E
:1036000042F21079DFF8DCA01F46DAF8003086B00D
:10361000B9FBF3F942F60A0303FB09F9304B0546FF
:10362000A3FB09390E468DF81720DDF838800F9C72
:10363000FDF7D2FC4FF0FF326FF000434FEAD9099B
:1036400019EB000041F10001824273EB010C3CBF19
:10365000104619460123CDE902010DF1170231464A
:103660002846009304F01AF9002835DD7CBB42F2AD
:103670001074FA21DAF80030194AB4FBF3F301FBB5
:10368000084403FB04F4A2FB0424FDF7A5FCE408B2
:10369000241841F100034FF0FF316FF00042A142C6
:1036A00072EB03003CBF0C461346029400240393C4
:1036B0003A46314628464346009404F00DF9404509
:1036C00034BF6FF00100204606B0BDE8F087204609
:1036D0000021FDF7BFFBCAE74FF0FF30F4E700BF62
:1036E000CDCCCCCCFC0900202DE9F04142F2107485
:1036F000354F98463D6842F60A03B4FBF5F403FBE8
:1037000004F4324B86B0A3FB043405460E468DF814
:103710001320FDF761FC4FF0FF326FF00043E40827
:10372000241841F10001A24273EB01003CBF19468D
:1037300014460123CDE90241284631460DF113021A
:10374000009304F0ABF80028D8BF4FF0FF3037DD0E
:1037500042F21074396842F6FE12B4FBF1F402FB37
:1037600004F41A4BA3FB0434FDF736FCE4082418D8
:1037700041F100034FF0FF316FF00042A14272EBC4
:1037800003003CBF0C4613460294002403933146C9
:103790002846032305AA009404F09EF8022898BF47
:1037A0006FF001000CD920469DF815309DF81410DB
:1037B0009DF816201B0243EA01431343C8F800306A
:1037C00006B0BDE8F08100BFFC090020CDCCCCCC18
:1037D0002DE9F04142F21074314F98463D6842F6AF
:1037E0000A03B4FBF5F403FB04F42E4B86B0A3FBF1
:1037F000043405460E468DF81320FDF7EDFB4FF01F
:10380000FF326FF00043E408241841F10001A242A6
:1038100073EB01003CBF194614460123CDE9024178
:10382000284631460DF11302009304F037F80028C2
:10383000D8BF4FF0FF3030DD42F21074396842F6E5
:103840000412B4FBF1F402FB04F4164BA3FB0434A2
:10385000FDF7C2FBE408241841F100034FF0FF31EB
:103860006FF00042A14272EB03003CBF0C461346CE
:1038700002940024039331462846022305AA0094AB
:1038800004F02AF8012898BF6FF0010005D92046FE
:10389000BDF814305BBAA8F8003006B0BDE8F0817E
:1038A000FC090020CDCCCCCC2DE9F04142F21074C3
:1038B000304F98463D6842F60A03B4FBF5F403FB2B
:1038C00004F42D4B86B0A3FB043405460E468DF858
:1038D0001720FDF781FB4FF0FF326FF00043E40843
:1038E000241841F10001A24273EB01003CBF1946CC
:1038F00014460123CDE90241284631460DF1170255
:10390000009303F0CBFF0028D8BF4FF0FF302BDD32
:1039100042F21074396842F60A02B4FBF1F402FB79
:1039200004F4154BA3FB0434FDF756FBE4082418FC
:1039300041F100034FF0FF316FF00042A14272EB02
:1039400003003CBF0C461346029400240393314607
:103950002846012305AA009403F0BEFF38B1204693
:103960009DF8143088F8003006B0BDE8F0816FF0A3
:103970000100F9E7FC090020CDCCCCCC70B542F2B7
:1039800010741B4D0E462D6842F6FE11B4FBF5F483
:1039900001FB04F486B08DF81420164A0546180A77
:1039A000A2FB04248DF816308DF81500FDF714FBEA
:1039B000E40824184FF0FF306FF0004241F100039B
:1039C000A04272EB03013CBF04461346029400245C
:1039D000039331462846032305AA009403F05EFFB3
:1039E00002284FF0FF30C8BF002006B070BD00BFF6
:1039F000FC090020CDCCCCCC70B542F21074194D2E
:103A000086B02D688DF81420B4FBF5F442F604124C
:103A100002FB04F48DF81530134B05460E46A3FB4C
:103A20000434FDF7D9FAE40824184FF0FF306FF0A2
:103A3000004241F10003A04272EB03013CBF044687
:103A4000134602940024039331462846022305AA14
:103A5000009403F023FF01284FF0FF30C8BF00207F
:103A600006B070BDFC090020CDCCCCCC2DE9F047D0
:103A700042F210744FF0FA0A1A4DDFF86CE0D5F8F4
:103A800000C084B0B4FBFCFC0AFB03440CFB04F450
:103A90001D469046AEFB04E406460F469DF8309066
:103AA000FDF79AFA4FF0FF326FF00043E408241854
:103AB00041F10001A24273EB01003CBF14461946DC
:103AC0004246CDE90241304639462B46CDF80090BA
:103AD00003F002FFA84234BF6FF00100002004B0E1
:103AE000BDE8F087FC090020CDCCCCCC2DE9F04717
:103AF00042F210744FF0FA0A1A4DDFF86CE0D5F874
:103B000000C084B0B4FBFCFC0AFB03440CFB04F4CF
:103B10001D469046AEFB04E406460F469DF83090E5
:103B2000FDF75AFA4FF0FF326FF00043E408241813
:103B300041F10001A24273EB01003CBF144619465B
:103B40004246CDE90241304639462B46CDF8009039
:103B500003F0A4FE401B18BF4FF0FF3004B0BDE8D7
:103B6000F08700BFFC090020CDCCCCCCF0B542F2F0
:103B70001074194D87B02D6852BAADF81420B4FBFB
:103B8000F5F442F6041202FB04F41D46134B0646FC
:103B90000F46A3FB0434FDF71FFAE408241841F193
:103BA00000034FF0FF316FF00042A14272EB0300BF
:103BB0003CBF0C4613463946039330460223029419
:103BC00005AA009503F06AFE01284FF0FF30C8BF38
:103BD000002007B0F0BD00BFFC090020CDCCCCCC4C
:103BE000F0B542F21074194D87B02D688DF817208A
:103BF000B4FBF5F442F60A0202FB04F41D46144B32
:103C000006460F46A3FB0434FDF7E6F9E408241842
:103C100041F100034FF0FF316FF00042A14272EB1F
:103C200003003CBF0C46134639460393304601233C
:103C300002940DF11702009503F030FE0028CCBF6E
:103C400000200120404207B0F0BD00BFFC09002069
:103C5000CDCCCCCC2DE9F843054668B304F0B6FBD7
:103C60004FF0000806464FF0FF39144F144804E0A7
:103C700057F81C0F08F10108D8B13246294603F065
:103C80009BFEB8B1BC69002CF2D0206820B9EFE7E8
:103C900054F8040F0028EBD03246294603F08CFE7E
:103CA0000028F5D157F81C0FC14608F1010800287B
:103CB000E3D1C84628EAE870BDE8F88370890010AF
:103CC000288700102DE9F043312A774C9DF81C60BD
:103CD00018BF00249DF820509DF82470002900F0A2
:103CE0009D8000F1FF3E0EEB010006E05940002CE4
:103CF00062D0635C864500F091801EF8011F002DA4
:103D0000F4D05FEA510800F0C88008F0010C4CEADA
:103D1000410C5FEA91095FFA8CFC00F0BC804FEA2D
:103D20004C0C09F001095FFA8CFC4CEA090C5FEAC3
:103D3000D10900F0B0804FEA4C0C09F001095FFA9C
:103D40008CFC4CEA090C5FEA111900F0A4804FEAE0
:103D50004C0C09F001095FFA8CFC4CEA090C5FEA93
:103D6000511900F098804FEA4C0C09F001095FFAF4
:103D70008CFC4CEA090C5FEA911900F08C804FEA48
:103D80004C0C5FFA8CFC09F00109C9094CEA090CDA
:103D900000F081804FEA4C0C5FFA8CFC4CF0010182
:103DA000B8FA88F8A8F119085FFA88F801FA08F15A
:103DB000C9B25940002C9CD14FEA410C5FFA8CFCEF
:103DC000090648BF82EA0C0C4FEA4C03DBB21CF038
:103DD000800F18BF53405900C9B21B0648BF51405D
:103DE0004B00DBB2090648BF53405900C9B21B065D
:103DF00048BF51404B00DBB2090648BF5340590051
:103E0000C9B21B0648BF51404B000906DBB27FF523
:103E100071AF864583EA02037FF46FAF002F36D07F
:103E200059083FD001F0010242EA43029808D2B299
:103E300036D0520000F00100D2B20243D8082FD091
:103E4000520000F00100D2B20243180928D05200FB
:103E500000F00100D2B20243580921D0520000F014
:103E60000100D2B2024398091AD05200D2B200F037
:103E70000100DB0942EA000212D05300DBB243F03A
:103E80000103B1FA81F2193AD2B29340DBB283EA6C
:103E90000600BDE8F083614682E74FF0070885E73A
:103EA0001346EEE70722F0E79C8C0010312A80EAE7
:103EB000010002D1154B185C704743000106DBB2CC
:103EC00048BF53405900C9B2180648BF51404B0083
:103ED000DBB2090648BF53405900C9B2180648BFB3
:103EE00051404B00DBB2090648BF53405900C9B2EC
:103EF000180648BF51404B00DBB2090648BF53408B
:103F00005800C0B21B0648BF504070479C8C001040
:103F10000023F0B5054683B00E4601200C2117465C
:103F20008DF80730FDF798FCB8B30446456006727B
:103F30000B22314628460DF10703FFF7B5FC80BB85
:103F40009DF8072002F0F802C82A20D103462F224C
:103F500031462846FFF744FE30BBFA200021FCF72B
:103F600079FF8023032231462846FFF745FDF0B94B
:103F70003146284603220DF10703FFF795FCC8B927
:103F80009DF80730802B09D06FF0050301E06FF03A
:103F9000010320463B80FDF775FC0024204603B05A
:103FA000F0BD4FF0FF33F4E76FF00203F1E76FF07D
:103FB0000303EEE76FF00403EBE700BF4FF47A7002
:103FC000704700BFF0B583B015461F4604460E4645
:103FD0000222017A0DF105034068FFF765FC10BB72
:103FE0009DF90530002B1ADB0246217A60680DF13D
:103FF0000603FFF7EDFB0446C0B9BDF90600FDF767
:1040000099FB4FF07E530022FDF712FBFDF784FB76
:10401000084B30602B603B60204603B0F0BD0124AC
:10402000204603B0F0BD4FF0FF34F5E76FF0010418
:10403000F2E700BF000080BFF0B505460E4683B032
:10404000102101201746FDF707FC70B304464FF01E
:10405000010C456006720023BA223146284684F8D6
:104060000CC0FFF7BDFD20BB46F2A8100021FCF7F5
:10407000F1FE4FF40063E12231462846FFF77EFC53
:1040800068B931462846712201ABFFF70DFC98B99B
:104090009DF804301B0709D46FF0030301E06FF0B3
:1040A000010320463B80FDF7EDFB0024204603B0D2
:1040B000F0BD4FF0FF33F4E76FF00203F1E700BF0C
:1040C000F0B505460E4683B0102101201746FDF7D6
:1040D000C3FB70B304464FF0020C45600672002328
:1040E000BA223146284684F80CC0FFF779FD20BB80
:1040F00046F2A8100021FCF7ADFE4FF40063BE228B
:1041000031462846FFF73AFC68B931462846712205
:1041100001ABFFF7C9FB98B99DF804301B0709D420
:104120006FF0030301E06FF0010320463B80FDF7D1
:10413000A9FB0024204603B0F0BD4FF0FF33F4E7A5
:104140006FF00203F1E700BF08B5AC22017A4FF42B
:104150004C534068FFF712FC642008BD2DE9F0477E
:10416000174600229846037B86B0012B0092044636
:104170000E4608BF0623017A18BF0723406804AA29
:104180000CBF4FF005094FF00609FFF76FFC05461D
:10419000002856D19DF91030002B55DB237B022BD4
:1041A0003AD09DF812409DF811309DF813C0BDF82B
:1041B0001400240144EA033444EA1C1440BA4FEAD0
:1041C0000C4C0CF4702C80B24CEA0000FDF7C4FAE1
:1041D00000221F4BFDF72CFA00221E4BFDF728FA98
:1041E00000221D4BFDF710FAFDF796FA30602046CD
:1041F000FDF7B2FA0022164BFDF71AFA174B002210
:10420000FDF716FAFDF788FA154BC8F800003B6079
:10421000284606B0BDE8F087FF23CDE9015500959B
:104220004946312204A8FFF74DFD09F118030DEBB3
:10423000030A1AF8083C834218BF6FF00205B0D099
:10424000E6E74FF0FF35E3E76FF00105E0E700BF79
:104250000000B03E000069400000494000005940A5
:10426000000080BFF0B5002585B0012314460095FD
:1042700003AA0F4606468DF80C50FFF737FC4FF4A3
:1042800048700021FCF7E6FD042103238DF80E1091
:1042900030463946009503AAADF80C30FFF726FCEE
:1042A00000285AD10546002140F2DC50FCF7D2FD2F
:1042B00008233946304622460095FFF7D7FB0028F1
:1042C00054D1A4464FF6FF732A4A04F1060E1CF897
:1042D000011B4B4043F30001114081EA530141F3BC
:1042E00000031340C1F34E014B4043F30001114062
:1042F000C3F34E03594041F300031340C1F34E0191
:104300004B4043F300011140C3F34E03594041F3C6
:1043100000031340C1F34E014B4043F30001114031
:10432000C3F34E03594041F300031340C1F34E0160
:104330004B40F4459BB2CAD1E2889A4213D122780D
:104340009DF80C309A420BD162789DF80E309A425B
:1043500018BF6FF0030005B0F0BD4FF0FF30FAE773
:104360006FF00300F7E76FF00200F4E76FF0010071
:10437000F1E700BF01A0FFFF2DE9F04106460D4621
:1043800082B00C2101201746FDF766FA90B1044671
:1043900046608046294630466A462572FFF762FF2E
:1043A000034618B9404602B0BDE8F08120463B8084
:1043B000FDF768FA4FF00008F4E700BF4FF4FA6029
:1043C000704700BF2DE9F04182B0164688466A4624
:1043D000017A40681F46FFF745FF08BB0546BDF858
:1043E0000400BDF80240C0BAFDF7A4F900220E4B4C
:1043F000FDF744F9FDF790F964BAA4B2C8F80000DB
:104400002046FDF797F9084B0022FDF737F9FDF735
:1044100083F9064B38603360284602B0BDE8F0816E
:104420004FF0FF35F8E700BF00002440000080BFD8
:104430000023F0B5054683B00E4601200C21174637
:10444000ADF80630FDF708FA002857D0044645605D
:1044500006720122314628460DF10603FFF7B8F92E
:10446000002852D146F21F03BDF806201340B3F5D1
:10447000804F3DD10322314628460DF10603FFF758
:10448000A7F9002847D1BDF80630A3F520539BB209
:104490007F2B3DD80222314628460DF10603FFF757
:1044A00097F9D8BBBDF80630A3F516539BB27F2B06
:1044B00028D8A023012231462846FFF75FFA80BBA7
:1044C00064200021FCF7C6FC0122314628460DF18C
:1044D0000603FFF77DF938BBBDF8063023F4C0436F
:1044E00023F01F039BB2A02B09D06FF0080301E05B
:1044F0006FF0010320463B80FDF7C4F900242046FD
:1045000003B0F0BD6FF00503F4E74FF0FF33F1E7C0
:104510006FF00303EEE76FF00203EBE76FF00403C5
:10452000E8E76FF00603E5E76FF00703E2E700BF97
:10453000FA207047F0B583B017461C460E4600229D
:10454000017A0DF106034068FFF742F998B9254654
:104550000446BDF90600FDF7EDF84FF07E5300224A
:10456000FDF766F8FDF7D8F8044B30603B602B6030
:10457000204603B0F0BD6FF00104F9E7000080BFF2
:104580002DE9F04106468AB00F4601203C219046B5
:10459000FDF762F900238DF80F3000286AD0002261
:1045A00003734FF0FF330446C0E9042346600772EB
:1045B000D022394630460DF10F03FFF775F9002878
:1045C0005DD19DF80F30552B4DD1B623E0223946F1
:1045D0003046FFF711FA0546002853D10A20FCF7B0
:1045E00051FC1623394600933046AA22019504ABAC
:1045F000FFF704F8002848D10246BDF82010BDF8A6
:104600001C5049BABDF81E3061F30F02BDF82210EC
:104610006DBA5BBA65F30F0049BA63F31F4061F3EB
:104620001F42C4E90902BDF81200BDF8243040BAA7
:10463000608320465BBAA385BDF81430BDF81060D6
:104640005BBABDF81610BDF81820A383BDF81A3068
:1046500076BA49BA52BA5BBA2683E183228463846C
:104660000AB0BDE8F0816FF001032046A8F80030E1
:10467000FDF708F9002420460AB0BDE8F0814FF0AC
:10468000FF33F2E76FF00203EFE76FF00303ECE7AD
:1046900010B5037BF422002B14BF1E240A24017AD8
:1046A00014BF13462E234068FFF7A6F9204610BD1D
:1046B0002DE9F04104461D46237B0F46164640680F
:1046C000F622217A82B033BB0DF10203FFF780F8A6
:1046D000002840F0BD80628CBDF80230B4F92C1087
:1046E0009B1A228CD4F8148002FB03F3B4F92A201D
:1046F000DB0B1944D20292FBF1F22363134413F152
:10470000080048BF03F11700C4E90D23012300117D
:10471000206123737FE001ABFEF7E6FF002840F045
:104720009480A16BB4F91C30A1F57A6101FB01F012
:1047300001FB03F3B4F92420001300FB02F2002B69
:10474000BCBF03F5FF531F33002ABCBF02F5FF4275
:104750007F325B1303EBE2339A1C48BF5A1D921061
:10476000E38BB4F926C002F5004203FB02F2B4F970
:104770001A3000FB0CFC01FB03F3BCF1000FB8BFC7
:104780000CF2FF7C002BB8BF03F2FF734FEAEC2C56
:104790000CEBE32CB4F9183001980CEB830C4FEAC6
:1047A000CC0C1CF1020348BF0CF105034009A0EB3F
:1047B000A30041F66A0300FB03F3002B4FEAD23259
:1047C0003FDB43F2D40303FB00F0B0FBF2F00346FF
:1047D00040F6DE320028B8BF00F1FF031B1203FBD6
:1047E00003F302FB03F31C4A1B1400FB02F2002A32
:1047F000BCBF02F57F42FF3203EB224303F6CF62D8
:10480000002AB8BF03F6DE62002300EB22182069FD
:10481000C4F814802373FCF78DFF00220F4BFCF7C4
:104820002DFFFCF779FF07EE908A0246F8EEE77A53
:1048300000200B4B3A60C6ED007A2B6002B0BDE859
:10484000F081B3FBF2F35800C1E76FF00200F5E727
:104850006FF00100F2E700BF43E3FFFF00002440D8
:10486000000080BFF0B505468BB00E460120242124
:104870001746FCF7F1FF00238DF80B3000284FD0CE
:10488000044645600672D022314628460DF10B03DE
:10489000FFF70AF800284AD19DF80B30582B39D180
:1048A000B623E02231462846FFF7A6F8002841D17A
:1048B0000A20FCF7E7FAAB23F42231462846FFF73B
:1048C0009BF8002839D11C23F52231462846FFF7F2
:1048D00093F8034640BB28461A25019331468822A7
:1048E00003AB0095FEF78AFE50BBBDF81200069997
:1048F00060822046BDF80C20DDF80E30A1610599DC
:10490000A281C4F80E306161DDE90723C4E9072301
:104910000BB0F0BD6FF0010320463B80FCF7B2FF07
:10492000002420460BB0F0BD6FF00403F4E74FF015
:10493000FF33F1E76FF00203EEE76FF00303EBE7FD
:104940006FF00503E8E700BF4FF47A70704700BFCF
:104950002DE9F04F062400258BB000940195044604
:10496000894617461E46017AF722406808ABFEF7D3
:1049700045FE002840F009819DF824109DF8233061
:10498000090141EA03319DF82520A38941EA121269
:10499000C3EB111101FB01F15B00C3EBD203B4F9CE
:1049A0001020091302FB01F1B4F90E20891302FB58
:1049B00003F301EBE3289DF82030054608EB88005F
:1049C0009DF82110039380309DF82230001205934A
:1049D0000491FCF7AFFE00226D4BFCF74FFEFCF795
:1049E0009BFEC9F80000B4F91A00A8F5FA31069048
:1049F000B4F91800B4F916C0079081FB010A0CFB4A
:104A00000AF9B4F914304FEAEC7B83FB013200FB66
:104A10000B99ACFB00CB1203CB444FEA1C2CB4F82F
:104A2000128042EA13524CEA0B6C1B031CEB030C82
:104A3000ACFB08C342EB2B2B0BF5004B08FB0B3BED
:104A40004FEAEB734FEA6B0953EA6B0BB4F91CE0C6
:104A500000F09980069A0EFB0AFA82FB0181059A02
:104A600049044FEA121C049A41EAD8314CEA021C6C
:104A7000039A4FEA48484CEA023C4A464FEAEE792C
:104A800000FB09A9AEFB00E0CCF5801C18EB0E0E74
:104A900081440CF00048079849EB010948EA5C089A
:104AA00015EB0E0E4FEACC7CBCEB0E0C09EBC009EB
:104AB00068EB09081CEB0C0E48EB08011EEB0C0E12
:104AC00048EB010188014FEA8E1940EA9E601EEB17
:104AD000090E41EB0001890041EA9E714FEA8E0EFA
:104AE0001EEB0C0E48EB01014FEA8E00890010EB23
:104AF0000C0041EA9E7148EB010103F005FDB4F999
:104B000022904B1309FB03FA4FEA503848EAC14898
:104B1000B4F92020B4F91EC04FEAE97408FB04AAD6
:104B2000A9FB084904FB03F3D14408FB0933A4FBA8
:104B300008484344640E44EAC314241841EB6363F9
:104B400002FB01F14FEAE27E0EFB0011A2FB002006
:104B50000144D20C42EA4132A41843EBE143200A5B
:104B600040EA036000EB0C10FCF7F6FD0022094B55
:104B7000FCF75EFDFCF7D0FD074B3860336028463C
:104B80000BB0BDE8F08F0020F6E76FF00105F6E707
:104B9000000059400000703F000080BF00232DE955
:104BA000F041054688B00E4601202C2117468DF8AD
:104BB0000B30FCF751FE002800F0D98000237F4A1B
:104BC000C36002610446456006720D2231462846E4
:104BD0000DF10B03FEF768FE002840F0D0809DF831
:104BE0000B301A0740F0CE801B0900F0BA808923F1
:104BF0000C2231462846FEF7FFFE002840F0C58013
:104C00002820FCF73FF92822314628460DF10B03F6
:104C1000FEF74AFE002840F0BB80262306223146DC
:104C200028469DF80B80FEF7E7FE002840F0A480A0
:104C300028F07F0307223146284643F02603FEF77B
:104C4000DBFE002840F0AA800723082231462846D0
:104C5000FEF7D2FE002840F0A4800C230922314642
:104C60002846FEF7C9FE002840F09E800DF10B0398
:104C7000082231462846FEF717FE0346002840F07A
:104C80008A809DF90B20002A80F291802846122507
:104C900001933146102203AB0095FEF7AFFC0028CC
:104CA00040F088809DF80D309DF80C001B090C2108
:104CB00043EA0010FEF794FC9DF80D309DF80E209D
:104CC0001B0203F470630C21A08243EA0200FEF78A
:104CD00087FC9DF810309DF80F201B0143EA02333A
:104CE0009DF811201421E08243EA1210FEF778FCAF
:104CF0009DF81120BDF8123012045BBA02F4702244
:104D00009BB21421A06142EA0300FEF769FCBDF8E2
:104D10001430E06158BA102180B2FEF761FCBDF892
:104D20001630208458BA102180B2FEF759FCBDF825
:104D30001830608458BA102180B2FEF751FCBDF8DB
:104D40001A30A08458BA102180B2FEF749FCBDF891
:104D50001C30E08458BA102180B2FEF741FC208557
:104D600006E06FF0020320463B80FCF78BFD002439
:104D7000204608B0BDE8F0816FF00503F3E74FF07F
:104D8000FF33F0E76FF00103EDE76FF00303EAE7AD
:104D90006FF00403E7E76FF00903E4E76FF0060341
:104DA000E1E76FF00703DEE76FF00803DBE76FF082
:104DB0000A03D8E76FF00B03D5E700BF000080BF00
:104DC0004FF47A70704700BF2DE9F04F87B0164658
:104DD0001F4604468A460822017A0DF113034068F3
:104DE000FEF762FD002840F0D2809DF813300546A2
:104DF0009A0608D4E368CAF800302369336028466D
:104E000007B0BDE8F08F0322217A606805ABFEF79A
:104E10006BFC002840F0BE8018210598FEF7E0FBEF
:104E2000FCF788FC00225E4BFCF728FCCDE9000172
:104E3000B4F91400FCF77EFC00225A4BFCF7F8FB97
:104E40008046B4F916008946FCF774FCDDE90023BE
:104E5000FCF7EEFB0B46024649464046FCF7C0FB1A
:104E6000FCF75AFC9DF81330CAF80000DB06E0603E
:104E700007D42369336028464B4B3B6007B0BDE83D
:104E8000F08F2A46217A606805ABFEF72DFC0028DA
:104E900040F0838018210598FEF7A2FBFCF74AFC3E
:104EA00000223F4BFCF7EAFB82468B46B4F9280010
:104EB000FCF740FC52465B46FCF7BAFB8046B4F96F
:104EC00024008946FCF736FC02460B46404649461C
:104ED000FCF786FB52465B46FCF7AAFB8046E0697E
:104EE0008946FCF727FC02460B4640464946FCF73C
:104EF00077FB52465B46FCF79BFB8046A0698946E0
:104F0000FCF718FC02460B4640464946FCF768FB96
:104F10008046B4F920008946FCF70CFCDDE900234B
:104F2000FCF786FB02460B4640464946FCF758FB19
:104F3000CDE90201B4F92600FCF7FCFB52465B46C2
:104F4000FCF776FB8046B4F922008946FCF7F2FBB9
:104F500002460B4640464946FCF742FB5246804615
:104F60008946DDE900015B46FCF762FB02460B4621
:104F700040464946FCF75CFB02460B46DDE9020170
:104F8000FCF72EFBFCF7C8FB3060206173E74FF0A5
:104F9000FF3534E76FF0010531E76FF003052EE7C9
:104FA00000C02F410000E03F000080BF2DE9F0432A
:104FB00004460D4687B00C2101209046FCF74CFCBE
:104FC000002800F09980064644600572012343F2F0
:104FD000817229462046FEF7C9FD002840F09480E2
:104FE000009003232946204605AAFEF73FFD074609
:104FF000002840F08980FF23CDE901000090312294
:10500000022105A8BDF81490FEF75CFE9DF816304D
:10501000834279D1B9F1300F67D13B4643F2A20206
:1050200029462046FEF7A2FD00286AD10320FBF79F
:1050300029FF43F2836901234A4629462046FEF7A9
:1050400095FD0746002862D1009703232946204694
:1050500005AAFEF70BFD0746002858D1FF23312291
:105060000221CDE9017705A80097FEF72BFE9DF8F8
:10507000163009F1010983421FFA89F947D143F239
:1050800086639945D7D101234FF22D322946204618
:10509000FEF76CFD00283DD10090032329462046F1
:1050A00005AAFEF7E3FC0746A0BBBDF81430312289
:1050B0005BBA0221CDE9017705A800971FFA83F9B1
:1050C000FF23FEF7FFFD9DF81630834222D119F42D
:1050D000005F12D03B462946204643F26602FEF7A7
:1050E00045FD50B16FF0050301E06FF0010330465C
:1050F000A8F80030FCF7C6FB0026304607B0BDE834
:10510000F0836FF00203F2E74FF0FF33EFE76FF049
:105110000303ECE76FF00403E9E700BF08B54FF4C1
:105120001052017A00234068FEF720FD002814BFCA
:105130004FF0FF300F2008BD2DE9F0432DED028B1D
:10514000002487B00094884616461F46017A06233D
:10515000406804AAFEF78AFC002856D10446BDF830
:1051600010C0FF239CFA9CFC31220221CDE90144AE
:1051700004A800941FFA8CF5FEF7A4FD9DF81230E8
:1051800083423FD1BDF81300FF2340BA31220221F0
:10519000CDE9014400941FFA80F90DF11300FEF7E8
:1051A00091FD9DF81530834232D107EE905A9FED64
:1051B0001C8AF8EE677AC7EE887A17EE900A03F039
:1051C00097F915A3D3E90023FCF732FA154B002217
:1051D000FCF71AFAFCF7A0FA07EE909AF8EE677A55
:1051E000DFED116A87EE887A67EE267A0F4BC8F8F2
:1051F0000000C7ED007A3360204607B0BDEC028B9B
:10520000BDE8F0836FF00104F6E74FF0FF34F3E7F9
:105210006FF00204F0E700BF0000000000E065400E
:1052200000FF7F47008046400000C842000080BF6A
:105230002DE9F041002582B006460F4601201821D5
:1052400090468DF80750FCF707FB48B30022026137
:105250001D4A044642614660077205732B46FE22D2
:1052600039463046FEF7BCFC98B90F20FBF70AFE22
:10527000E722394630460DF10703FEF715FB00BB68
:105280009DF8073013F0810F0FD1204602B0BDE822
:10529000F0814FF0FF332046A8F80030FCF7F2FA17
:1052A0000024204602B0BDE8F08139463046E622AF
:1052B00003F07E03FEF7A0FB0028E6D06FF00203A8
:1052C000E9E76FF00103E6E7000080BF08B50023BF
:1052D000027B017A9A4214BFF522F3224068FEF75E
:1052E0007FFC002814BF4FF0FF30322008BD00BF04
:1052F0002DE9F043002487B00094054689461746FF
:105300009846017A0323406805AAFEF7AFFB002800
:105310006AD10446312223460221CDE9014405A881
:105320000094FEF7CFFC9DF8163083425FD19DF8C4
:1053300014009DF8156048B300EA0603FF2B27D040
:1053400006F0FC0646EA0020FCF7F4F92B7B2BBBA9
:1053500031A3D3E90023FCF76BF90022284BFCF7BB
:1053600067F925A3D3E90023FCF74EF9FCF7D4F93C
:10537000012328612B73C9F8000020466A69214B7C
:10538000C8F800203B6007B0BDE8F083002ED7D1FD
:105390006FF00204204607B0BDE8F08300221A4BEC
:1053A000FCF746F90022164BFCF742F90022174B96
:1053B000FCF72AF9FCF7B0F907EE900AF5EEC07A8F
:1053C000F1EE10FA0DD49FED127AF4EE477AF1EE79
:1053D00010FA77FE277A0023C5ED057A28692B732A
:1053E000C9E7DFED0C7AF6E74FF0FF34D2E76FF054
:1053F0000104CFE7AFF30080CDCCCCCCCC6C4740E0
:105400000000F03E000080BF00405F4000001840F8
:105410000000C84200000000D7A3703D0AF76540B5
:105420002DE9F04106460F4686B00C21012090463A
:10543000FCF712FA002859D00423002246600772B4
:105440000446CDE9003239460A22304605ABFEF764
:10545000D5F8054600284ED12B4631220321CDE94F
:10546000015505A80095FEF72DFC9DF817308342E5
:1054700035D12B461E2239463046FEF7B1FB054694
:1054800000283BD10F20FBF7FDFC019502250822E7
:1054900000953946304604ABFEF7B0F8054680BBB0
:1054A0002B4631220121CDE9015504A80095FEF7D4
:1054B00009FC9DF81130834223D19DF910309DF8ED
:1054C0001020002B20DBD30711D52B463946304660
:1054D0000122FEF785FB50B16FF0050301E06FF08C
:1054E00001032046A8F80030FCF7CCF90024204640
:1054F00006B0BDE8F0814FF0FF33F2E76FF0020332
:10550000EFE76FF00303ECE76FF00403E9E700BF98
:1055100008B55E22017A00234068FEF761FB00288F
:1055200014BF4FF0FF300D2008BD00BF0000000089
:105530002DE9F04700244FF0020886B00194CDF821
:10554000008004460F4615461E46017A0822406830
:1055500004ABFEF753F800287FD10346CDE90100E4
:1055600000903122012104A8FEF7ACFB9DF8113018
:10557000834272D19DF8102012F0810273D106236C
:1055800001920093217A606804ABFEF737F8044675
:1055900000286BD1BDF8133041465BBA3122CDE90A
:1055A000014404A800941FFA83FA2346BDF8109022
:1055B000FEF788FB4146804623463122CDE901446F
:1055C00000940DF11300FEF77DFB9DF8123099FA5F
:1055D00099F943451FFA89F942D19DF81530834264
:1055E0003ED14846FCF7A6F82AA3D3E90023FCF7EE
:1055F0001FF821A3D3E90023FCF740F80022204B39
:10560000FCF702F8FCF788F838605046FCF792F88F
:1056100000221C4BFCF70CF817A3D3E90023FCF77E
:105620002DF8FCF779F807EE900AF5EEC07AF1EE66
:1056300010FA0FD49FED147AF4EE477AF1EE10FAD7
:1056400077FE277A114BC6ED007A2B60204606B014
:10565000BDE8F087DFED0E7AF4E74FF0FF34F5E7B1
:105660006FF00304F2E76FF00104EFE76FF002045C
:10567000ECE700BFAFF3008000000000E0FFEF4068
:1056800000004440000059400000C842000080BFB4
:10569000000000000000000000A0644000232DE98D
:1056A000F041064688B00F4601201C2190468DF837
:1056B0000F30FCF7D1F8A0B105460424466007720C
:1056C0000F22394630460DF10F03FEF7EDF868B1B1
:1056D000013CF5D14FF0FF332846A8F80030FCF725
:1056E000D1F80025284608B0BDE8F0819DF80F30BC
:1056F000BC2B6FD18023212239463046FEF77CF93E
:1057000000286DD10520FBF7BDFB2122394630462C
:105710000DF10F03FEF7C8F8002867D19DF90F308F
:10572000002B60DB10240190B022394630460DEB8F
:1057300004030094FDF762FF00284ED19DF8151078
:1057400022469DF812000C029DF81330890104F4E2
:10575000407401F4407120430B431B1A07EE903A4A
:105760009DF810409DF81130E8811B1B07EE103AA0
:10577000BDF91600BDF91A30B8EEC76A1B1A07EE5C
:10578000103ABDF91C10BDF91E30F8EEC76A5B1A5D
:1057900007EE103AF8EEE77AB8EEC77AC6EE265A68
:1057A000C7EE876A688229822C2339463046C5EDC8
:1057B000055AC5ED066A2C73FEF71EF9C8B9832396
:1057C000394630462022FEF717F900288AD06FF0BC
:1057D000070381E76FF001037EE76FF005037BE7C6
:1057E0006FF0020378E76FF0040375E76FF00303CF
:1057F00072E76FF006036FE750207047F0B585B091
:1058000015461E4604460F462722017A0DF10B036A
:105810004068FEF749F8002849D19DF80BC00CF00C
:10582000030CBCF1030F02D0012005B0F0BD4FF016
:10583000040C0190217A6068A82203ABCDF800C067
:10584000FDF7DCFEB0BBB4F91020BDF90E3094EDCD
:10585000065A9B1A07EE903AE389F8EEE76A07EEDC
:10586000903AF8EEE77AF4EE005AE6EE857A67EEC3
:10587000A57AB4F91220C7ED007ABDF90C30D4ED49
:10588000056A9B1A227B07EE103A07EE902AB8EEC3
:10589000C77AF8EEE77AB6EE006AE7EE267A67EEA8
:1058A000867A064BC6ED007A2B6005B0F0BD4FF04E
:1058B000FF30BAE76FF00100B7E700BF000080BF1C
:1058C00000232DE9F043064683B00F460120102146
:1058D00090468DF80730FBF7BFFF00285FD0466089
:1058E000077204460F22394630460DF10703FDF7D3
:1058F000DBFF054600286DD19DF80730B32B75D02E
:10590000BD2B51D0B42B75D0B12B7DD0237B002B78
:1059100066D0BD2B4FF004054AD04FF01109042387
:105920004A4639463046FEF767F800284AD1052036
:105930000021FBF78FFA80234A4639463046FEF7AE
:105940005BF8002849D140F6FC000021FBF782FA01
:105950004A46394630460DF10703FDF7A5FF0028FA
:1059600041D19DF90730002B4BDB2B4B03EB05138B
:105970009D68023515F8022C92B115F8013C3946A4
:1059800030468DF80730FEF737F802350028F1D0A1
:105990006FF006032046A8F80030FBF773FF0024E1
:1059A000204603B0BDE8F08340F2BD130125A3817A
:1059B0004FF0210904234A4639463046FEF71CF8C9
:1059C0000028B4D06FF002032046A8F80030FBF79F
:1059D00059FFE4E74FF0FF33F6E76FF00303F3E717
:1059E0006FF00103F0E76FF00403EDE74FF01109EA
:1059F000A38194E74FF42D7302254FF01109A38181
:105A00008DE76FF00503DFE740F2B13303254FF078
:105A10001109A38183E700BF9C8D0010427B024BDC
:105A200003EB0213988970479C8D00102DE9F04319
:105A300087B016461D4604460F462722017A0DF10F
:105A40000F034068FDF730FF00285AD19DF80FC0C2
:105A50000CF0030CBCF1030F40D14FF0050C01908A
:105A6000237B217ABD2B60680CBFA822282204ABBF
:105A7000CDF800C0FDF7C2FD8046002844D19DF856
:105A800011309DF812209DF810001B0243EA0243DA
:105A900018431821FDF7A4FD10218146BDF813001D
:105AA000FDF79EFD237BBD2B1ED0FBF743FE00229E
:105AB000174BFBF7E3FDFBF72FFE38604846FBF77B
:105AC00039FE144B0022FBF7B3FDFBF725FE124B0A
:105AD00030602B60404607B0BDE8F0834FF001080E
